:100000000C9462000C948A000C948A000C948A0070
:100010000C948A000C948A000C948A000C948A0038
:100020000C948A000C948A000C948A000C948A0028
:100030000C948A000C948A000C948A000C948A0018
:100040000C94E5060C948A000C94B3060C948D066F
:100050000C948A000C948A000C948A000C948A00F8
:100060000C942F070C948A00000000002300260047
:10007000290000000008000201000003040700003E
:1000800000000000000000000000250028002B00F8
:1000900000000000240027002A00040404040404D3
:1000A0000404020202020202030303030303010227
:1000B00004081020408001020408102001020408F6
:1000C00010204E0811241FBECFEFD8E0DEBFCDBFF9
:1000D00011E0A0E0B1E0EAE7F6E102C005900D9280
:1000E000A234B107D9F722E0A2E4B1E001C01D9229
:1000F000A53CB207E1F710E0C2E6D0E004C02197CA
:10010000FE010E94350BC136D107C9F70E9496083F
:100110000C943B0B0C94000008950895AF92BF928D
:10012000CF92DF92EF92FF920F931F93CF93DF93C3
:100130006C017B018B01040F151FEB015E01AE18F2
:10014000BF08C017D10759F06991D601ED91FC9114
:100150000190F081E02DC6010995892B79F7C50141
:10016000DF91CF911F910F91FF90EF90DF90CF9093
:10017000BF90AF900895FC01538D448D252F30E042
:10018000842F90E0821B930B541710F0CF960895A4
:1001900001970895FC01918D828D981761F0A28DD1
:1001A000AE0FBF2FB11D5D968C91928D9F5F9F7397
:1001B000928F90E008958FEF9FEF0895FC01918D4D
:1001C000828D981731F0828DE80FF11D858D90E0BA
:1001D00008958FEF9FEF0895FC01918D228D892F57
:1001E00090E0805C9F4F821B91098F73992708953F
:1001F00080E192E00E94EC0021E0892B09F420E0EC
:10020000822F089580E090E0892B29F00E94F80069
:1002100081110C9400000895FC01A48DA80FB92F42
:10022000B11DA35ABF4F2C91848D90E001968F731E
:100230009927848FA689B7892C93A089B1898C913D
:10024000837080648C93938D848D981306C002888C
:10025000F389E02D80818F7D80830895EF92FF9256
:100260000F931F93CF93DF93EC0181E0888F9B8DD9
:100270008C8D98131AC0E889F989808185FF15C093
:100280009FB7F894EE89FF896083E889F9898081B6
:100290008370806480839FBF81E090E0DF91CF9185
:1002A0001F910F91FF90EF900895F62E0B8D10E0A7
:1002B0000F5F1F4F0F731127E02E8C8D8E110CC016
:1002C0000FB607FCFACFE889F989808185FFF5CF61
:1002D000CE010E940C01F1CFEB8DEC0FFD2FF11D33
:1002E000E35AFF4FF0829FB7F8940B8FEA89FB899E
:1002F00080818062CFCFCF93DF93EC01888D8823FC
:10030000B9F0AA89BB89E889F9898C9185FD03C078
:10031000808186FD0DC00FB607FCF7CF8C9185FF5D
:10032000F2CF808185FFEDCFCE010E940C01E9CF95
:10033000DF91CF910895833081F028F4813099F0D6
:100340008230A9F008958730A9F08830C9F0843050
:10035000B1F4809180008F7D03C0809180008F7701
:1003600080938000089584B58F7784BD089584B507
:100370008F7DFBCF8091B0008F778093B000089580
:100380008091B0008F7DF9CF1F93CF93DF93282FFB
:1003900030E0F901EE58FF4F8491F901E255FF4F2B
:1003A000D491F901E656FF4FC491CC23A9F0162F42
:1003B00081110E949B01EC2FF0E0EE0FFF1FEA5726
:1003C000FF4FA591B4918FB7F894EC91111108C02B
:1003D000D095DE23DC938FBFDF91CF911F910895DD
:1003E000DE2BF8CF3FB7F8948091EC019091ED01AE
:1003F000A091EE01B091EF0126B5A89B05C02F3F5B
:1004000019F00196A11DB11D3FBFBA2FA92F982F3A
:100410008827BC01CD01620F711D811D911D42E035
:10042000660F771F881F991F4A95D1F708958F92FD
:100430009F92AF92BF92CF92DF92EF92FF924B01C9
:100440005C010E94F2016B017C010E94F2016C19B7
:100450007D098E099F09683E734081059105A8F3C7
:1004600021E0821A9108A108B10888EEC80E83E045
:10047000D81EE11CF11C81149104A104B10429F7D8
:10048000FF90EF90DF90CF90BF90AF909F908F90B4
:1004900008956F927F928F929F92AF92BF92CF9268
:1004A000DF92EF92FF920F931F93CF93DF932FB7BB
:1004B000F8948091F0019091F101A091F201B09136
:1004C000F3012FBF4091010250910202609103029B
:1004D000709104028C019D01041B150B260B370B38
:1004E0004091FD015091FE014130510509F0AFC02E
:1004F00047EE53E060E070E0041715072607370762
:1005000008F496C08093010290930202A093030224
:10051000B093040280E090E0A0ECBFE78093F40188
:100520009093F501A093F601B093F7018093F80141
:100530009093F901A093FA01B093FB0160E08091E0
:10054000FC010E94C4018091FC0190E0FC01E25595
:10055000FF4F249186569F4FFC018491882399F088
:1005600090E0880F991FFC01E057FF4FA591B491CF
:10057000FC01EA57FF4F859194918FB7F894EC9165
:10058000E22BEC938FBF8091FD019091FE010197CA
:1005900009F062C062E170E080E090E00E94170222
:1005A0008091FC0190E0FC01E255FF4F24918656BA
:1005B0009F4FFC0184918823C1F090E0880F991F20
:1005C000FC01E057FF4FC591D491FC01EA57FF4F62
:1005D000A591B4919FB7F8948881E22FE0958E237E
:1005E00088838C91E823EC939FBF61E08091FC01AC
:1005F0000E94C4014DEFB42ED0E0C0E0F12CE12CFC
:1006000010E000E00E94F201762EFB2DF1708F2E9B
:10061000CF2EFF0FDD080E94F201962E97188AE573
:10062000891510F581E090E0909300028093FF011E
:10063000DF91CF911F910F91FF90EF90DF90CF90BE
:10064000BF90AF909F908F907F906F9008954FECE8
:1006500057E060E070E050CF8BE79CE00197F1F746
:100660009FCF7801B394CECF2091FC0130E0F90107
:10067000EE58FF4F8491F901E255FF4FA490F90124
:10068000E656FF4F6490662009F439C081110E943C
:100690009B01E62DF0E0EE0FFF1FE859FF4FA591FB
:1006A000B491EC91AE2231E020E009F430E0832FE8
:1006B000922FC816D90609F4AECFB7FC0FC0882018
:1006C00031F0000F111FEEE1E91508F401608FE130
:1006D000B81609F4C6CFEFE3BE16A1F0FFE4BF12CF
:1006E000C1CF6F2D7727CD2EDD248C2F8E0D860F59
:1006F0008C0D8017110651F082E090E095CF90E0CC
:1007000080E0D7CFE80110E000E0ACCF8091FD01A0
:100710009091FE010197F1F490E080E00E94180AA8
:100720006093F8017093F9018093FA019093FB01B3
:10073000B60190E080E00E94180A6093F401709383
:10074000F5018093F6019093F70110920002109248
:10075000FF016ECFB70190E080E00E94180A2DECF7
:100760003CEC4CEC5DE30E947E0A6093F8017093D0
:10077000F9018093FA019093FB01D7FF04C0DF7762
:10078000D195C195D109BE01DD0F880B990B0E944F
:100790001A0A2DEC3CEC4CEC5DE30E947E0ACDCFB6
:1007A000089585ED8093BC008091BC0084FDFCCF52
:1007B00010920B02089520918201260F3327331FD8
:1007C00021323105ECF420910B02FC0190E080E035
:1007D000243069F082E00895A09182012191AC015A
:1007E0004E595E4FA40FB52FB11D2C93019686175D
:1007F00098F380918201680F6093820180E00895F0
:1008000081E008950895E0910F0280910E02E817AB
:1008100030F4F0E0EE5BFE4F808190E008958FEFC2
:100820009FEF089590910F0280910E022FEF3FEFFE
:10083000981748F4E92FF0E0EE5BFE4F208130E09E
:100840009F5F90930F02C901089580910E029091CD
:100850000F02891B990B0895CF92DF92EF92FF92BE
:100860000F931F93CF93DF937C01CB018A012091DB
:10087000C901222389F0EB016B01C40ED51ECC15F2
:10088000DD0569F06991D701ED91FC910190F0814E
:10089000E02DC7010995F3CF642F0E94DB03C80147
:1008A000DF91CF911F910F91FF90EF90DF90CF904C
:1008B0000895CF93DF931F92CDB7DEB76983209160
:1008C000C9012223F9F020910C02203258F021E0D6
:1008D00030E0FC013383228390E080E00F90DF91D1
:1008E000CF91089580910D02E82FF0E0E653FE4F7E
:1008F000998190838F5F80930D0280930C0281E039
:1009000090E0ECCF61E0CE0101960E94DB03F7CFCF
:10091000CF93FC01C48121E02093C901C093EA0177
:1009200010920D0210920C028385682B8DEA92E0E2
:100930000E94590490910C02913208F03FC08091BE
:100940000B028111FCCF82E080930B0281E0809347
:100950000A028FEF8093C8011092C7019093C601DD
:10096000AAECB1E0E6EAF1E080E098132FC0109223
:10097000A5018091A501CC0FC82BC093A501809142
:100980000902813039F5109209028091A501809306
:10099000BB008091BC0083FDF8CF85EC8093BC0048
:1009A00080910B028230E1F38091C8018F3F31F0DA
:1009B0008091C801803211F08091C80110920D021F
:1009C00010920C021092C901CF9108952D9121939C
:1009D0008F5FCBCF85EEE2CF90E080E008950F935C
:1009E0001F93CF938C01C62F0E9488046C2F6460E4
:1009F000C8010E9488046C2F6B7FC8010E94880484
:100A000083EC90E00197F1F7CF911F910F9108953A
:100A10000F931F93CF93DF938C01D62FC42F607F4A
:100A2000642B0E94EF0480E1D89FB00111246C2B4D
:100A3000C801DF91CF911F910F910C94EF04CF93D8
:100A4000DF93CDB7DEB728970FB6F894DEBF0FBEA1
:100A5000CDBF98E0E0E0F1E0DE01119601900D924B
:100A60009A95E1F79091C102961708F46FEF262F3F
:100A700030E0220F331F41E050E04C0F5D1F240F88
:100A8000351FF9016081680F606840E089EB92E0F2
:100A900028960FB6F894DEBF0FBECDBFDF91CF9181
:100AA0000C940805CF93DF9310920F0210920E0260
:100AB00010920D0210920C0210920B0281E08093B2
:100AC0000A021092090261E082E10E94C40161E021
:100AD00083E10E94C4018091B9008E7F8093B900A8
:100AE0008091B9008D7F8093B90088E48093B8002D
:100AF00085E48093BC008CE890E09093080280939A
:100B000007028DE890E09093060280930502109210
:100B1000BE028091C302823018F098E09093BE022A
:100B20008093C10262E370E080E090E00E941702CF
:100B30006091C40289EB92E00E94880468EE73E041
:100B400080E090E00E94170260E389EB92E00E944F
:100B5000EF04CBE4D6E4CE010197F1F760E389EB33
:100B600092E00E94EF042197F1F760E389EB92E0B5
:100B70000E94EF0483E592E00197F1F760E289EBD0
:100B800092E00E94EF046091BE02606240E089EB57
:100B900092E00E94080584E08093BF0240E06CE090
:100BA00089EB92E00E94080540E061E089EB92E069
:100BB0000E940805CBE3DFE1CE010197F1F782E067
:100BC0008093C00240E066E089EB92E00E94080555
:100BD00040E062E089EB92E00E9408052197F1F77E
:100BE000DF91CF91089541E00E94080581E090E0F7
:100BF0000895FB0101900020E9F73197AF01461BF2
:100C0000570BDC01ED91FC910280F381E02D0994FA
:100C10004F925F926F927F92AF92BF92CF92DF928C
:100C2000EF92FF920F931F93CF93DF93CDB7DEB771
:100C3000A1970FB6F894DEBF0FBECDBF5C016A016D
:100C40007B01F7FE47C0DC01ED91FC910190F08142
:100C5000E02D6DE209958C0122273327A9012C197B
:100C60003D094E095F0919A2FE01B1967F019AE084
:100C7000492E512C612C712CCA01B901A30192019A
:100C80000E94130B605DD7016E937D012115310524
:100C90004105510589F790E080E0109721F0BD01F2
:100CA000C5010E94F905800F911FA1960FB6F89417
:100CB000DEBF0FBECDBFDF91CF911F910F91FF908F
:100CC000EF90DF90CF90BF90AF907F906F905F904C
:100CD0004F900895AB01960119A28E010F5D1F4F31
:100CE0008AE0C82ED12CE12CF12CCA01B901A70150
:100CF00096010E94130B605DF80162938F0121152C
:100D000031054105510589F790E080E0309769F29F
:100D1000BF01C5010E94F905C8CF1F920F920FB6FF
:100D20000F9211242F933F934F935F936F937F9371
:100D30008F939F93AF93BF93EF93FF9380E192E0E4
:100D40000E940C01FF91EF91BF91AF919F918F9104
:100D50007F916F915F914F913F912F910F900FBEB7
:100D60000F901F9018951F920F920FB60F9211249B
:100D70002F938F939F93EF93FF93E0912002F09135
:100D800021028081E0912602F091270282FD1BC0A2
:100D90009081809129028F5F8F7320912A028217A0
:100DA00041F0E0912902F0E0E05FFD4F958F8093E4
:100DB0002902FF91EF919F918F912F910F900FBE7C
:100DC0000F901F9018958081F4CF1F920F920FB64D
:100DD0000F9211242F933F938F939F93AF93BF93C1
:100DE0008091F0019091F101A091F201B091F30195
:100DF0003091EB0123E0230F2D3758F50196A11D0B
:100E0000B11D2093EB018093F0019093F101A09329
:100E1000F201B093F3018091EC019091ED01A0916A
:100E2000EE01B091EF010196A11DB11D8093EC017F
:100E30009093ED01A093EE01B093EF01BF91AF91BC
:100E40009F918F913F912F910F900FBE0F901F9008
:100E5000189526E8230F0296A11DB11DD2CF1F922F
:100E60000F920FB60F9211242F933F934F935F93DE
:100E70006F937F938F939F93AF93BF93EF93FF9362
:100E80008091B900887F803609F44AC0F0F5883235
:100E900009F4A7C018F5803109F49BC0B8F4882381
:100EA00009F4F9C0883009F494C0FF91EF91BF9123
:100EB000AF919F918F917F916F915F914F913F91F2
:100EC0002F910F900FBE0F901F901895883109F445
:100ED00088C0803251F78093C80114C0803409F46F
:100EE0009DC040F48033B9F38833F9F68093C8018C
:100EF00085ECB0C0803509F485C0883509F496C00A
:100F0000883499F60E94D103D0CF883909F48CC077
:100F100038F5883729F050F4883611F0803729F6F3
:100F200083E080930B021092A40157C0883809F423
:100F30007BC0803919F0803809F0B7CF8091A401C7
:100F4000803208F071C0E091A40181E08E0F80939F
:100F5000A4018091BB00F0E0EC57FE4F80833DC0C0
:100F6000803B39F0E0F4803A09F479C0883A09F01E
:100F70009CCF84E080930B02109283011092820137
:100F8000E0910702F0910802099580918201811198
:100F90000FC081E0809382011092620109C0803C01
:100FA00009F4A6CF883C09F4A3CF883B09F07DCF94
:100FB000E091830181E08E0F80938301F0E0EE5990
:100FC000FE4F80818093BB009091830180918201CC
:100FD00029C08091A5018093BB0085EC8093BC0063
:100FE00064CF9091C7018091C601981758F5E091A0
:100FF000C70181E08E0F8093C701F0E0EA55FE4FF4
:101000008081E9CFE091C70181E08E0F8093C70115
:101010008091BB00F0E0EA55FE4F80839091C701BC
:101020008091C6019817C8F285E8D8CFE091C70132
:1010300081E08E0F8093C7018091BB00F0E0EA55FC
:10104000FE4F808380910A0281115CCF81E0809302
:10105000090284EA8093BC0010920B0226CF85EC33
:101060008093BC0010920B028091A401803230F476
:10107000E091A401F0E0EC57FE4F10826091A401D2
:1010800070E0E0910502F091060284E891E0099594
:101090001092A4010ACF1092C80134CFE0E1F2E02F
:1010A0001382128288EE93E0A0E0B0E084839583FF
:1010B000A683B7832CE031E03183208325EC30E038
:1010C0003587248724EC30E03787268720EC30E012
:1010D000318B208B21EC30E0338B228B22EC30E003
:1010E000358B248B26EC30E0378B268B118E128EBD
:1010F000138E148EEDEAF2E01382128284839583BC
:10110000A683B7838EE191E091838083E9EBF2E0DF
:101110001382128280E391E09183808380E2848352
:1011200084E1818784E0828713860895789484B56A
:10113000826084BD84B5816084BD85B5826085BDD3
:1011400085B5816085BD80916E00816080936E0061
:101150001092810080918100826080938100809153
:101160008100816080938100809180008160809304
:1011700080008091B10084608093B1008091B000C4
:1011800081608093B00080917A00846080937A00BF
:1011900080917A00826080937A0080917A008160E9
:1011A00080937A0080917A00806880937A00109210
:1011B000C100E0912002F091210292E09083E09141
:1011C0001C02F0911D021082E0911E02F0911F029C
:1011D0008FEC808310922802E0912402F091250286
:1011E00086E08083E0912202F09123028081806179
:1011F0008083E0912202F0912302808188608083C5
:10120000E0912202F0912302808180688083E09146
:101210002202F091230280818F7D80839093FC01D4
:101220001092FE011092FD012FB7F8948091F00109
:101230009091F101A091F201B091F3012FBF885B71
:101240009B40A109B1098093010290930202A093EF
:101250000302B093040282E090E09093FE01809339
:10126000FD010E9449028091FF01909100028130AE
:10127000910521F49093FE018093FD010E94520597
:101280000E94520588E08093C40260E089EB92E0FE
:101290000E94880460E086E00E941F0568E371E018
:1012A00089EB92E00E94F90561E086E00E941F054B
:1012B0006BE371E089EB92E00E94F90588EE882EDD
:1012C00083E0982EA12CB12CC0E0D0E08FB7F89429
:1012D000C090F001D090F101E090F201F090F301A4
:1012E0008FBF60E089E00E941F05C701B601A5011C
:1012F00094010E94130BA901330F660B770B89EB46
:1013000092E00E9408060E9449026091F8017091E3
:10131000F9018091FA019091FB010E94E2096B01B1
:1013200060E083E00E941F050D2C000CEE08FF0812
:10133000B701A60189EB92E00E940806B701A60159
:1013400080E192E00E9408066EE371E080E192E0A5
:101350000E94F9050E9449026091F4017091F50123
:101360008091F6019091F7010E94E2096B0161E022
:1013700083E00E941F050D2C000CEE08FF08B7014A
:10138000A60189EB92E00E940806B701A60180E160
:1013900092E00E9408066EE371E080E192E00E9414
:1013A000F90568EE73E080E090E00E941702209754
:1013B00009F48CCF0E94F800882309F487CF0E949B
:1013C000000084CF0E94E9096894B1110C94780A56
:1013D00008950E945D0A88F09F5798F0B92F9927C9
:1013E000B751B0F0E1F0660F771F881F991F1AF010
:1013F000BA95C9F714C0B13091F00E94770AB1E0F4
:1014000008950C94770A672F782F8827B85F39F0F2
:10141000B93FCCF3869577956795B395D9F73EF4A8
:1014200090958095709561957F4F8F4F9F4F089550
:10143000E89409C097FB3EF490958095709561956E
:101440007F4F8F4F9F4F9923A9F0F92F96E9BB2724
:101450009395F695879577956795B795F111F8CFA0
:10146000FAF4BB0F11F460FF1BC06F5F7F4F8F4F0B
:101470009F4F16C0882311F096E911C0772321F001
:101480009EE8872F762F05C0662371F096E8862F99
:1014900070E060E02AF09A95660F771F881FDAF7F0
:1014A000880F9695879597F9089557FD9058440FA2
:1014B000551F59F05F3F71F04795880F97FB991FB3
:1014C00061F09F3F79F08795089512161306140670
:1014D000551FF2CF4695F1DF08C0161617061806FD
:1014E000991FF1CF86957105610508940895E894D8
:1014F000BB2766277727CB0197F908950E94910AA9
:101500000C94020B0E94F40A38F00E94FB0A20F0AF
:10151000952311F00C94EB0A0C94F10A11240C940D
:10152000780A0E94550A70F3959FC1F3950F50E019
:10153000551F629FF001729FBB27F00DB11D639F85
:10154000AA27F00DB11DAA1F649F6627B00DA11D2B
:10155000661F829F2227B00DA11D621F739FB00DD1
:10156000A11D621F839FA00D611D221F749F332741
:10157000A00D611D231F849F600D211D822F762FDA
:101580006A2F11249F5750409AF0F1F088234AF0B7
:10159000EE0FFF1FBB1F661F771F881F9150504023
:1015A000A9F79E3F510580F00C94EB0A0C94780A41
:1015B0005F3FE4F3983ED4F3869577956795B795AA
:1015C000F795E7959F5FC1F7FE2B880F911D9695C4
:1015D000879597F9089597F99F6780E870E060E034
:1015E00008959FEF80EC089500240A9416161706BC
:1015F00018060906089500240A9412161306140604
:1016000005060895092E0394000C11F4882352F066
:10161000BB0F40F4BF2B11F460FF04C06F5F7F4F1E
:101620008F4F9F4F0895A1E21A2EAA1BBB1BFD01ED
:101630000DC0AA1FBB1FEE1FFF1FA217B307E407B1
:10164000F50720F0A21BB30BE40BF50B661F771F09
:10165000881F991F1A9469F76095709580959095E9
:101660009B01AC01BD01CF010895EE0FFF1F059056
:0A167000F491E02D0994F894FFCFE7
:10167A000000400014005400000000002E018E00FB
:10168A00BB007B01EC00CA00DE0000000000590428
:10169A002C04EC04020425041204030400000000D4
:1016AA00F3058E00EC04D0032520002A43000D0A1E
:0216BA0000002E
:00000001FF
